:100000000C94A1010C94D2010C94D2010C94D20155
:100010000C94D2010C94D2010C94D2010C94D20114
:100020000C94D2010C94D2010C94D2010C94D20104
:100030000C94D2010C94D2010C94D2010C94D201F4
:100040000C94D2010C94D2010C94D2010C94D201E4
:100050000C94D2010C94D2010C94D2010C94DD22A8
:100060000C94D2010C9451230C9427230C94D201AC
:100070000C94D2010C94D2010C94D2010C94D201B4
:100080000C94D2010C94D2010C94D2010C94D201A4
:100090000C94D2010C94D2010C94D2010C94D20194
:1000A0000C94D2010C94D2010C94D2010C94D20184
:1000B0000C94D2010C94D2010C94D2010C94D20174
:1000C0000C94D2010C94D2010C94D2010C94D20164
:1000D0000C94D2010C94D2010C94D2010C94D20154
:1000E0000C94D20107634236B79BD8A71A396856D9
:1000F00018AEBAAB558C1D3CB7CC5763BD6DEDFD4A
:10010000753EF6177231BF000000803F0800000006
:10011000BE922449123EABAAAA2ABECDCCCC4C3EFC
:1001200000000080BEABAAAAAA3E00000000BF00EB
:100130000000803F0000000000084178D3BB4387E7
:10014000D1133D190E3CC3BD4282AD2B3E68EC82FB
:1001500076BED98FE1A93E4C80EFFFBE01C4FF7F80
:100160003F00000000000C94EE030C946A1E0C94F7
:100170001E030C947D210C949D100C941E1F0C9456
:1001800034030C940E030C943A030C940A050C945B
:10019000110F0C9430030C9403030C94D91F0C948E
:1001A0006F1F0C946D040C94E81D0C9459040C946E
:1001B000ED020C94EF1F0C94E8020C947B040C9459
:1001C000B51F0C94CF220C9487230C9493100C949D
:1001D000411E0C9407030C940B030C949B0E0C947F
:1001E000410F0C94F71E0C94FF020C942C030C94FA
:1001F000C51E0C94B3040C945E0F0C9422030C9453
:100200001D040C9461220C944A040C9418030C9461
:1002100026030C949B1E0C9414030C94080F0C944E
:10022000310F0C94950C0C943E037C3C3E5E2B3DB0
:100230003F2F5B5D3B2C2A225C0000000A0B020969
:100240000C0D0E0807030401000000000000000070
:10025000000000000000000000000000000000009E
:10026000000000000000121110000000000000005B
:10027000000000000000000000000000000000007E
:1002800000002200250028002B002E003100340041
:1002900002010000050108010B01000021002400FB
:1002A00027002A002D003000330001010000040166
:1002B00007010A01050505050705080808080202E7
:1002C00002020A0A080804040404010101010101F0
:1002D00001010303030303030303040707070C0CD3
:1002E0000C0C0C0C0C0C020202020606060606069A
:1002F00006060B0B0B0B0B0B0B0B0102102020083F
:100300000810204010204080020102010804020170
:1003100001020408102040808040201008040201DF
:100320008004020180402010080402010804020138
:1003300001020408102040800102040810204080BF
:10034000872311241FBECFEFD1E2DEBFCDBF00E077
:100350000CBF29E0A8E8B2E001C01D92AA30B207A4
:10036000E1F712E0A0E0B2E0E2EEFDE500E00BBF55
:1003700002C007900D92A838B107D9F711E0C1EA81
:10038000D1E000E006C021970109802FFE010E9404
:10039000102AC03AD10780E00807A9F70E94032479
:1003A0000C94EF2E0C94000090E0FC01E650FD4F01
:1003B00024918C549D4FFC018491882399F090E006
:1003C000880F991FFC01E656FD4FA591B491FC01E1
:1003D000E058FD4F859194918FB7F894EC91E22B02
:1003E000EC938FBF08950F931F93CF93DF938C01EE
:1003F000EB01FA01CA0187709927892B61F1CA01C3
:1004000068E070E00E94BB299F01285F3F4FA9016F
:10041000481B590BCA0130E020E050E040E02817AB
:10042000390714F52E173F0764F4D801A20FB31F44
:100430006C91613031F4DE01A40FB51F6C916160E5
:100440006C932F5F3F4FB90167707727672B29F4B3
:100450004F5F5F4FE4CFCA01DECFDE01A40FB51FAF
:100460006C91660F6C93DBCFDF91CF911F910F9151
:1004700008950F931F93CF93DF93EC0190E081E0F9
:10048000E92F092E000CFF0BE417F507FCF4DE0141
:10049000AE0FBF1FAC9123E0EE0FFF1F2A95E1F7CF
:1004A000E60FF71F27E030E0B0E08D01022E02C01A
:1004B000159507950A94E2F700FD808321503109D4
:1004C00031962F3F320789F79F5FDACFDF91CF91C7
:1004D0001F910F910895CF93DF93FC018281938147
:1004E0009093200880931F0884819581A681B7810D
:1004F0008093210890932208A0932308B0932408A6
:1005000080859185A285B3858093250890932608E0
:10051000A0932708B0932808DF011C96CF014996C5
:10052000C9E2D8E02D912993A817B907D9F7818D91
:10053000928D90933708809336088DE198E0DF9193
:10054000CF91089580917B00886080937B0080E448
:1005500080937C0080917A00806480937A008091FF
:100560007A0086FDFCCF8091780090917900089503
:10057000282F30E0F901E65CFD4F9491F901E65037
:10058000FD4F44912C543D4FF9012491222309F44D
:1005900035C0992311F191509231F8F4E92FF0E030
:1005A0008827EA52FD4F8F4F0C94102A07030B0344
:1005B000E802FF020303ED020E03140318031E03F7
:1005C000220326032C033003ED0234033A033E03D7
:1005D000809180008F7780938000E22FF0E0EE0F13
:1005E000FF1FE058FD4FA591B4918FB7F894EC919F
:1005F000611148C040954E234C938FBF0895809160
:1006000080008F7DE8CF80918000877FE4CF84B524
:100610008F7784BDE2CF84B58F7DFBCF8091B00012
:100620008F778093B000D9CF8091B0008F7DF9CFC4
:10063000809190008F7780939000CFCF8091900031
:100640008F7DF9CF80919000877FF5CF8091A000BA
:100650008F778093A000C1CF8091A0008F7DF9CFCC
:100660008091A000877FF5CF809120018F778093C4
:100670002001B3CF809120018F7DF9CF809120019F
:10068000877FF5CF4E2BB8CFCF93DF93D82FC92FCD
:1006900061E08BE00E94B80260E08DE00E94B80249
:1006A00060E08CE00E94B802D2B9C8B910920B0188
:1006B00010920A0180910901DF91CF9108953FB70F
:1006C000F89480912F0590913005A0913105B0915B
:1006D000320526B5A89B05C02F3F19F00196A11D34
:1006E000B11D3FBFBA2FA92F982F8827BC01CD017C
:1006F000620F711D811D911D42E0660F771F881FDB
:10070000991F4A95D1F708958F929F92AF92BF9209
:10071000CF92DF92EF92FF924B015C010E945F0348
:100720006B017C010E945F036C197D098E099F0992
:10073000683E734081059105A8F321E0821A910873
:10074000A108B10888EEC80E83E0D81EE11CF11C98
:1007500081149104A104B10429F7FF90EF90DF9078
:10076000CF90BF90AF909F908F9008951F93CF939D
:10077000DF93182FD92FC62F60E08DE00E94B802BA
:1007800060E08CE00E94B80261E08BE00E94B80259
:1007900061E070E080E090E00E94840312B9D8B973
:1007A00060E08BE00E94B8028FEF80930A01EBE0DB
:1007B000F1E0C083808161E08BE0DF91CF911F91F8
:1007C0000C94B8022FB7F89460912B0570912C050A
:1007D00080912D0590912E052FBF089508950F93B8
:1007E0001F93CF93DF93EC010E94E2036887798720
:1007F0008A879B87E881F9810284F385E02DCE0109
:10080000199597FF15C00E94E203088519852A856E
:100810003B85601B710B820B930B0C811D812E811C
:100820003F81601771078207930720F38FEF9FEFD7
:10083000DF91CF911F910F910895AF92BF92CF9208
:10084000DF92EF92FF920F931F93CF93DF936C0190
:100850007B018B01040F151FEB015E01AE18BF0871
:10086000C017D10759F06991D601ED91FC91019023
:10087000F081E02DC6011995892B79F7C501DF912B
:10088000CF911F910F91FF90EF90DF90CF90BF908D
:10089000AF900895FC01538D448D252F30E0842FB7
:1008A00090E0821B930B541710F0CF960895019798
:1008B0000895FC01918D828D981761F0A28DAE0F85
:1008C000BF2FB11D5D968C91928D9F5F9F73928F0C
:1008D00090E008958FEF9FEF0895FC01918D828D38
:1008E000981731F0828DE80FF11D858D90E0089505
:1008F0008FEF9FEF0895FC01918D228D892F90E05D
:10090000805C9F4F821B91098F739927089585E31F
:1009100097E00E947B0421E0892B09F420E0822FDC
:100920000895FC01A48DA80FB92FB11DA35ABF4F84
:100930002C91848D90E001968F739927848FA689DE
:10094000B7892C93A089B1898C91837080648C9332
:10095000938D848D981306C00288F389E02D8081E1
:100960008F7D80830895EF92FF920F931F93CF9313
:10097000DF93EC0181E0888F9B8D8C8D98131AC0DA
:10098000E889F989808185FF15C09FB7F894EE89C1
:10099000FF896083E889F98980818370806480831E
:1009A0009FBF81E090E0DF91CF911F910F91FF9069
:1009B000EF900895F62E0B8D10E00F5F1F4F0F7311
:1009C0001127E02E8C8D8E110CC00FB607FCFACFCC
:1009D000E889F989808185FFF5CFCE010E949104D5
:1009E000F1CFEB8DEC0FFD2FF11DE35AFF4FF0829D
:1009F0009FB7F8940B8FEA89FB8980818062CFCF03
:100A0000682F85E397E00C94B304682F85E397E0A3
:100A10000C94B304CF93DF93EC01888D8823B9F055
:100A2000AA89BB89E889F9898C9185FD03C08081F9
:100A300086FD0DC00FB607FCF7CF8C9185FFF2CF76
:100A4000808185FFEDCFCE010E949104E9CFDF9137
:100A5000CF91089580E090E0892B29F00E948704CF
:100A600081110E94000080E090E0892B49F080E035
:100A700090E0892B29F00E94000081110E94000063
:100A800080E090E0892B49F080E090E0892B29F00C
:100A90000E94000081110E94000080E090E0892BFC
:100AA00049F080E090E0892B29F00E94000081113C
:100AB0000C94000008958FB7F89480911B058FBFA8
:100AC000089561E0FC0184810E94B80280911A05BA
:100AD000811110921A0508958EBD00000DB407FE15
:100AE000FDCF8EB508958FEF0C946C050F931F9377
:100AF000CF93DF93EC010E94E2038B010E94730508
:100B00008F3F69F00E94E203601B710B6C177D0739
:100B1000A8F380E0DF91CF911F910F91089581E0BC
:100B2000F9CF8CBD9DBD0895CF93DF93EC018091EB
:100B30001A05811109C081E080931A058091D207BE
:100B40009091D3070E94910560E08C81DF91CF9155
:100B50000C94B8028F929F92AF92BF92FF920F9324
:100B60001F93CF93DF93EC01F62E49015A018E813A
:100B7000882389F08F8198859C012F5F3F4F3887AC
:100B80002F838230924018F40E947305F3CFCE0178
:100B90000E9461051E82CE010E9494058CE291E0C4
:100BA0000E9476058F2D80640E946C0508E110E09C
:100BB000D501C401002E04C0B695A79597958795D9
:100BC0000A94D2F70E946C0508501109083F8FEF74
:100BD000180771F785E9FF2021F028E087E8F21275
:100BE0008FEF0E946C0510E00E9473058A8787FFD3
:100BF00004C01F3F11F01F5FF7CFDF91CF911F910E
:100C00000F91FF90BF90AF909F908F900895AF92FB
:100C1000BF92CF92DF92EF92FF920F931F93CF93E9
:100C2000DF93EC016901C801820F931F813092406C
:100C300050F58E81882379F088819981AA81BB81C2
:100C400084179507A607B70731F48F819885C816D2
:100C5000D90608F042C0488359836A837B838B8519
:100C6000833039F089E0440F551F661F771F8A953E
:100C7000D1F79A01AB0161E1CE010E94AA05882358
:100C800089F083E08D83CE010E94610580E0DF91D1
:100C9000CF911F910F91FF90EF90DF90CF90BF9079
:100CA000AF9008950E94E2035B010E9473058A875A
:100CB0008F3F69F40E94E2036A197B096D3271402B
:100CC000A0F38FE08D83CE010E946105DCCF8E3FC3
:100CD00089F418861F8281E08E838F8198858C1518
:100CE0009D0550F40E9473058F8198850196988721
:100CF0008F83F3CF8DE0E6CF6701E00EF11E0E94F7
:100D00007305F60181936F01EE15FF05C1F78F8121
:100D10009885080F191F18870F838985882319F074
:100D200001151240A0F08E81882389F08F8198856B
:100D30009C012F5F3F4F38872F838230924018F4F9
:100D40000E947305F3CFCE010E9461051E8281E0EF
:100D50009ECFCF92DF92EF92FF920F93CF93DF93CC
:100D6000EC01690182E1411551056105710599F0B8
:100D70008B85833039F089E0440F551F661F771F3C
:100D80008A95D1F79A01AB0168E1CE010E94AA05CC
:100D9000882319F084E08D832DC08EEF0E946C05AE
:100DA00076018EEFD81AF70181917F010E946C05C0
:100DB000EC14FD04C1F78FEF0E946C058FEF0E94C9
:100DC0006C050E9473058A878F71853071F401115B
:100DD00016C0CE010E94610581E0DF91CF910F9195
:100DE000FF90EF90DF90CF90089581E18D83CE0149
:100DF0000E946105CE010E94610580E0EECF88E58A
:100E000092E00E947605811102C085E1C4CF20E006
:100E100030E0A9016DE0CE010E94AA05882311F0FF
:100E200084E1B9CF0E9473058111FACFD2CF0F931D
:100E300040911D0550911E0560911F057091200580
:100E4000411551056105710599F0082F23E335E03F
:100E500080913307909134070E94A906882349F0B6
:100E600010921D0510921E0510921F05109220056C
:100E700081E00F9108950F93CF93C82F80911C05A7
:100E8000811105C0C1E08C2FCF910F910895409141
:100E900000025091010260910202709103020C2F36
:100EA00023E335E080913307909134070E94A9062F
:100EB000811102C0C0E0E7CFCC2321F381E00E9482
:100EC00017078823B9F310921C05DDCF8F929F92EC
:100ED000AF92BF92EF92FF920F931F93CF934B016C
:100EE0005C01C42F8091000290910102A091020246
:100EF000B091030288159905AA05BB0551F181E05F
:100F00000E943B0781110BC080E0CF911F910F9190
:100F1000FF90EF90BF90AF909F908F90089583E3E4
:100F2000E82E85E0F82E00E012E030E020E0B50188
:100F3000A40180913307909134070E94070688230B
:100F400019F38092000290920102A0920202B092E4
:100F5000030240911C054C2B40931C0581E0D5CF2A
:100F60008F929F92AF92BF92CF92DF92EF92FF92B9
:100F7000CF9324ED37E03093340720933307882351
:100F800009F46DC040E060E070E0CB010E946607AC
:100F900081110BC080E0CF91FF90EF90DF90CF9058
:100FA000BF90AF909F908F9008958091F1068F77BA
:100FB00089F78091FD069091FE06A091FF06B09101
:100FC000000784369105A105B10520F3C090F9060C
:100FD000D090FA06E090FB06F090FC06C114D10414
:100FE000E104F104B9F240E0C701B6010E946607CE
:100FF000882381F280913E0590913F0581159240B2
:1010000049F6A0914305AA2329F260914105709108
:1010100042056115710509F4BDCF209140052223D9
:1010200009F4B8CFA093F2072093E40790E080E0A2
:1010300030E0E1E0F0E0C82FAF01082E02C0440F1D
:10104000551F0A94E2F72417350769F041E0480F6D
:1010500001968930910579F74093ED079BCFC12C1C
:10106000D12C7601C0CF8093ED07209149053091B6
:101070004A0550E040E02115310541F42091570523
:10108000309158054091590550915A052093E50734
:101090003093E6074093E7075093E807460157016E
:1010A000860E971EA11CB11C8092F3079092F40744
:1010B000A092F507B092F607E0914405F09145053E
:1010C000F093F907E093F807B0E00E948D29DC0166
:1010D000CB01880D991DAA1DBB1D8093FA07909323
:1010E000FB07A093FC07B093FD0725E0EE0FFF1F61
:1010F0002A95E1F7E150FE4FEF2FFF27E6958E0F7F
:101100009F1FA11DB11D8093EE079093EF07A09341
:10111000F007B093F1078090460590904705B12CF9
:10112000A12C8114910441F48090530590905405B2
:10113000A0905505B0905605C81AD90AEA0AFB0ACC
:10114000C80CD91CEA1CFB1C04C0F694E794D79485
:10115000C794CA95D2F7C092E907D092EA07E09205
:10116000EB07F092EC0785EFC8168FE0D806E10494
:10117000F10428F48CE08093F70781E00CCF80E144
:1011800025EFC2162FEFD206E104F104A0F38091FF
:101190005F0590916005A0916105B0916205809313
:1011A000FA079093FB07A093FC07B093FD0780E23A
:1011B000E2CF4F925F926F927F928F929F92AF9207
:1011C000BF92CF92DF92EF92FF920F931F93CF9334
:1011D000DF93EC01423051056105710590F480E028
:1011E000DF91CF911F910F91FF90EF90DF90CF9003
:1011F000BF90AF909F908F907F906F905F904F9037
:10120000089589859A85AB85BC850196A11DB11D80
:1012100084179507A607B70710F3CB88DC88ED88FD
:10122000FE888F89803109F042C0BB27A72F962FF7
:10123000852F480159012A013B01C80ED91EEA1E1B
:10124000FB1E8091000290910102A0910202B091D8
:101250000302C816D906EA06FB0699F58F89803184
:10126000C1F5B301A201552766277727440F551F03
:101270004D5C5A4FFA019182808280911C058160F9
:1012800080931C058A89823080F08D819E81AF8198
:10129000B8858C0D9D1DAE1DBF1D80931D059093BF
:1012A0001E05A0931F05B093200581E099CFDB01B7
:1012B000CA01E7E0B695A79597958795EA95D1F786
:1012C000B8CF40E0C701B6010E9466078111C6CFC2
:1012D00086CFB301A2014F77552766277727440FA2
:1012E000551F440F551F4D5C5A4FFA018082918261
:1012F000A282B382C2CF8F929F92AF92BF92CF92BF
:10130000DF92EF92FF920F931F93CF93DF93FC0135
:1013100081859285A385B4850196A11DB11D841791
:101320009507A607B70770F480E0DF91CF911F9172
:101330000F91FF90EF90DF90CF90BF90AF909F9074
:101340008F90089583889488A588B688878980318E
:1013500089F5BB27A72F962F852FE9016A017B010D
:101360008F01BC01CD01680D791D8A1D9B1D8090E8
:10137000000290900102A0900202B0900302861633
:101380009706A806B90601F5F8018789803111F59D
:10139000DD24EE24FF24F601EE0FFF1FED5CFA4F73
:1013A00080819181B0E0A0E088839983AA83BB8388
:1013B00081E0BBCFDB01CA01C7E0B695A795979541
:1013C0008795CA95D1F7C9CF40E00E946607811181
:1013D000DBCFAACFE894C7F8DD24EE24FF24F60182
:1013E000EE0FFF1FEE0FFF1FED5CFA4F8081918122
:1013F000A281B381BF70D8CF4F925F926F927F92DC
:10140000AF92BF92CF92DF92EF92FF920F931F9312
:10141000CF93DF9300D01F92CDB7DEB78C01498305
:101420005A836B837C835901C12CD12C7601412CCA
:1014300082E0582E612C712C49815A816B817C810C
:101440009E012F5F3F4FC8010E947B09882339F11D
:10145000F8018585A301920104C0220F331F441FA8
:10146000551F8A95D2F7DA01C901C80ED91EEA1EA6
:10147000FB1E49815A816B817C818789803111F102
:1014800088EF9FEFAFEFBFE0481759076A077B0768
:1014900098F2F501C082D182E282F38281E00F905E
:1014A0000F900F900F90DF91CF911F910F91FF90B0
:1014B000EF90DF90CF90BF90AF907F906F905F9054
:1014C0004F90089588EF9FEFA0E0B0E0DDCFCF937D
:1014D000DF93FC012581222321F080E0DF91CF9171
:1014E0000895EC018091F707803159F582E08583FA
:1014F000178A108E118E128E8091F8079091F9073D
:10150000B0E0A0E025E0880F991FAA1FBB1F2A9515
:10151000D1F7838B948BA58BB68B80EE97E09C8F55
:101520008B8F81E08C831E821F82188619861A8613
:101530001B861C861D861E861F86188A198A1A8A93
:10154000CDCF803251F683E085834091FA075091E8
:10155000FB076091FC077091FD07478B508F618FEF
:10156000728F9F012D5E3F4F80EE97E00E94FC0935
:101570008111D3CFB2CF8F929F92AF92BF92CF9271
:10158000DF92EF92FF920F931F93CF93DF93EC01C3
:101590008D8181110EC080E0DF91CF911F910F915D
:1015A000FF90EF90DF90CF90BF90AF909F908F9083
:1015B00008950B891C892D893E8904171507260774
:1015C000370748F34A015B01823031F48A869B86F3
:1015D000AC86BD8681E0E0CF81149104A104B10402
:1015E00049F41E821F82188619861A861B861C865D
:1015F0001D86F0CF0A851B852C853D85EB8DFC8DE6
:10160000858590E00996B901A80141505109610909
:101610007109082E04C076956795579547950A94E9
:10162000D2F775016401E1E0CE1AD108E108F108B2
:1016300004C0F694E794D794C7948A95D2F7C41659
:10164000D506E606F70620F0012B022B032B11F539
:101650008F89988DA98DBA8D8E839F83A887B9872E
:101660008E010A5F1F4FC114D104E104F10409F493
:10167000ADCF4E815F816885798598018B8D9C8D7A
:101680000E947B0991E0C91AD108E108F108811193
:10169000EACF81CFC41AD50AE60AF70AE1CF3F9212
:1016A0004F925F926F927F928F929F92AF92BF9272
:1016B000CF92DF92EF92FF920F931F93CF93DF931E
:1016C000CDB7DEB72C970FB6F894DEBF0FBECDBFF7
:1016D0005C01DC015B968D909C905C9716964D901A
:1016E0005D906D907C9019974114510461047104D0
:1016F00009F468C0BFEF4B1A5B0A6B0A7B0A312CF6
:10170000F40181859285A385B4859C01AD012F5F8D
:101710003F4F4F4F5F4F29873A874B875C87730155
:1017200062011D821E821F821886F40181859285C6
:10173000A385B4852D813E814F81588528173907AF
:101740004A075B0708F056C089859A85AB85BC853A
:101750008C159D05AE05BF0550F482E0C82ED12C36
:10176000E12CF12C92E0492E512C612C712C9E0120
:101770002F5F3F4FB701A601C4010E947B09882358
:10178000C9F189819A81AB81BC81892B8A2B8B2BF2
:1017900009F1260137019FEF491A590A690A790AA6
:1017A0002D813E814F8158852F5F3F4F4F4F5F4FB7
:1017B0002D833E834F8358873FEFC31AD30AE30A32
:1017C000F30AB3CFF40140805180628073803324E8
:1017D000339496CFC414D504E604F70409F70FEF49
:1017E0001FEF2FEF3FE0B701A601C4010E94D90807
:1017F000811119C080E02C960FB6F894DEBF0FBEA1
:10180000CDBFDF91CF911F910F91FF90EF90DF90AF
:10181000CF90BF90AF909F908F907F906F905F9090
:101820004F903F900895D50116964D915D916D9121
:101830007C911997411551056105710539F09701A2
:101840008601C4010E94D9088823A1F2D501169609
:10185000CD92DD92ED92FC921997332051F0D70191
:10186000C6010196A11DB11DF40180839183A2835D
:10187000B383F5018789908DA18DB28D892B8A2B39
:101880008B2B39F48481C78AD08EE18EF28E8068EA
:101890008483F50184818062848381E0ACCF1F93CF
:1018A000CF93DF93FC0125812223D1F1162FEC0188
:1018B000848187FF2AC0668577858089918941E088
:1018C0000E946607882361F1EA8980E2E89FF001BF
:1018D0001124ED5CFA4F309719F18D81823040F47C
:1018E0008B899C89AD89BE89848F958FA68FB78F90
:1018F0008F89988D938F828F8F89988DA98DBA8DBE
:10190000B58BA48B8C818F778C83111103C08C8154
:101910008F7E8C83812FDF91CF911F910C943B0799
:1019200080E0DF91CF911F910895FF920F931F9355
:10193000CF93DF93EC018D81813041F090E080E026
:10194000DF91CF911F910F91FF9008958C8181FFBE
:10195000F5CF82FD1BC00091330710913407C801F9
:101960000E9494050E947305F82EC8010E9461052B
:101970008FEFF812E3CF8C8185FF1BC060E0CE01B2
:101980000E944F0C8C818F7D8C83D8CF4B895C89D2
:101990006D897E898A859B85AC85BD858417950771
:1019A000A607B707C1F2CE010E94BB0A8111D3CFAF
:1019B000C5CF40911D0550911E0560911F05709186
:1019C0002005452B462B472B21F080E00E9417076E
:1019D000B5CF80618C832A853B85317080E092E0B1
:1019E000821B930BADCFCF93DF93EC0161E00E949C
:1019F0004F0C882311F01D8281E0DF91CF91089573
:101A00002F923F924F925F926F927F928F929F920E
:101A1000AF92BF92CF92DF92EF92FF920F931F93FC
:101A2000CF93DF9300D01F921F92CDB7DEB77C011A
:101A30005B01342E5D83DC0115968C911597813006
:101A400009F0CEC014962C9021FECAC022FCB4C06E
:101A5000C32CDD8022947FE027222094B22DB17028
:101A60002B2ED7011A964D915D916D917C911D970A
:101A7000C114D10409F428C15B968D919C915C97A7
:101A8000FC0174807A948A019B0169E03695279560
:101A9000179507956A95D1F770228A011170711018
:101AA00020C001151105E9F416964D915D916D91D7
:101AB0007C911997411551056105710509F099C08F
:101AC00057968D919D910D90BC91A02D0097A105E9
:101AD000B10509F0B0C0C7010E944F0B882309F47B
:101AE0007FC080E092E0801B910B46018C159D0524
:101AF00008F44C01D7015B964D915C915C9716966A
:101B00008D919D910D90BC91A02D0297A109B109D5
:101B1000FA01258504C0880F991FAA1FBB1F2A95AB
:101B2000D2F74685578560897189840F951FA61F56
:101B3000B71F9C01AD01270D311D411D511D29010C
:101B40003A01811432E0930609F07BC080910002D3
:101B500090910102A0910202B091030284159505B3
:101B6000A605B70559F48FEF9FEFDC0180930002C3
:101B700090930102A0930202B0930302022D9501FB
:101B8000B301A20180913307909134070E94A90606
:101B9000882331F19EEFB91AC818D908F701828558
:101BA0009385A485B585880D991DA11DB11D8287DA
:101BB0009387A487B58755CFF701438954896589F1
:101BC000768982859385A485B585481759076A0764
:101BD0007B0709F43DCFC7010E94BB0A811138CFB2
:101BE00081E090E0D70113969C938E93129780E04A
:101BF00007C09E012F5F3F4F0E947B09811102C0E9
:101C000090E079C089819A81AB81BC81F701238DF5
:101C1000348DF901278948EF5FEF60E070E02031F3
:101C200021F048EF5FEF6FEF7FE084179507A6077D
:101C3000B70708F050CFF70186839783A087B18755
:101C400050CF0115110599F5D7011A964D915D9167
:101C50006D917C911D9753968D919D910D90BC91A6
:101C6000A02D481759076A077B0708F181E00E94F9
:101C70003B07882309F4B4CF40920002509201023E
:101C8000609202027092030280911C058160809331
:101C90001C05C8018D5C9A4FD5019C01280D391D8A
:101CA000FC012E173F0759F04D914193FACF41E0C7
:101CB000C301B2010E9466078111EBCF91CF281BAF
:101CC000390BA20EB31E68CFF70183899489A589C9
:101CD000B68984179507A607B70738F48481438B24
:101CE000548B658B768B80688483F701848183FDB8
:101CF0001AC0832D9D810F900F900F900F900F9021
:101D0000DF91CF911F910F91FF90EF90DF90CF90D7
:101D1000BF90AF909F908F907F906F905F904F900B
:101D20003F902F90089561E0C7010E944F0C8823D7
:101D300009F456CFDECFCF93DF931F92CDB7DEB736
:101D4000698341E050E0BE016F5F7F4F0E94000D4C
:101D50000F90DF91CF910895FC01DB0112968D91D8
:101D60009C9113979383828380E292E09183808396
:101D700014968C911497848315968C91159785836E
:101D800016964D915D916D917C911997468357837D
:101D9000608771871A964D915D916D917C911D9729
:101DA00042875387648775871E964D915D916D912B
:101DB0007C91519746875787608B718B52968C9197
:101DC0005297828B53964D915D916D917C91569770
:101DD000438B548B658B768B57964D915D916D91AE
:101DE0007C915A97478B508F618F728F5B968D9144
:101DF0009C91948F838F0895DC015996ED91FC910D
:101E0000309721F081E09581911101C080E0089523
:101E1000FC01818D928D009719F061E00C944F0CBC
:101E20000895DC015996ED91FC913097B9F08389C2
:101E30009489A589B6894285538564857585841BF7
:101E4000950BA60BB70B811520E89207A105B105EC
:101E500038F08FEF9FE7A0E0B0E0089590E080E0D9
:101E60000895DC0159968D919C91009739F0DC0121
:101E7000ED91FC910480F581E02D199490E080E0D3
:101E80000895CF93DF93EC01E98DFA8D309749F4F3
:101E900081E090E09B838A8390E080E0DF91CF91A6
:101EA000089513821282898D9A8D0E94000DE98D0A
:101EB000FA8D22813381232B59F7F0CFCF93DF9313
:101EC0001F92CDB7DEB76983DC01ED91FC910280F2
:101ED000F381E02D41E050E0BE016F5F7F4F199527
:101EE0000F90DF91CF9108952F923F924F925F9282
:101EF0006F927F928F929F92AF92BF92CF92DF921A
:101F0000EF92FF920F931F93CF93DF9300D0CDB743
:101F1000DEB7FC018581811118C08FEF9FEF0F9014
:101F20000F900F90DF91CF911F910F91FF90EF9045
:101F3000DF90CF90BF90AF909F908F907F906F90E9
:101F40005F904F903F902F900895848180FFE5CF60
:101F5000438954896589768982859385A485B58569
:101F6000312C212C481759076A077B0719F02224C6
:101F70002394312C6F012101CE0101963C01DF0138
:101F80001696BB83AA834114510409F4C5C0F60117
:101F900042855385648575854A01F1E09F22D6010B
:101FA0005B968D919C915C978A019B01E9E0369547
:101FB000279517950795EA95D1F71596EC91E2309C
:101FC000E9F5FC01628D738D848D958D600F711F15
:101FD000821F931FA12C22E0B22EA818B9084A1420
:101FE0005B0408F45201F601248126FD04C0A1140B
:101FF000F2E0BF0671F400910002109101022091FD
:10200000020230910302061717072807390709F063
:102010005EC040E00E946607882309F47ECFC401B9
:102020008D5C9A4FD3019C012A0D3B1DFC012E179C
:102030003F0709F46CC041914D93F9CFDC01149630
:10204000BC90BA94B0228114910479F4B1100DC0FF
:10205000452B462B472B69F5F6018789908DA18D7D
:10206000B28D86839783A087B187D6015B96ED9169
:10207000FC915C9716966D917D918D919C9119972D
:102080006250710981099109258504C0660F771F87
:10209000881F991F2A95D2F70685178520893189CF
:1020A000600F711F821F931F6B0D711D811D911D8C
:1020B00091CFD60116964D915D916D917C911997B6
:1020C0002A813B810E947B098111CFCF26CF7301EA
:1020D00085019401AB01BC018091330790913407D5
:1020E0000E940706882309F418CF6A0C7B1CF601AE
:1020F00082859385A485B5858A0D9B1DA11DB11D83
:1021000082879387A487B5874A185B083CCF281B32
:10211000390B620E731EEBCF2A94232809F0FDCEF3
:10212000898190E0FCCEFC01818D928D009711F0A9
:102130000C94740F8FEF9FEF08950F931F93CF931D
:10214000DF93EC01898D9A8D10E000E0009799F003
:102150000E94740F8C010F3F100769F0898D9A8DD2
:10216000FC0142855385648575854150510961099B
:1021700071090E94BB0AC801DF91CF911F910F9195
:102180000895FC016481758190E0492F50E0461765
:102190005707A8F4208131812115310571F0240FF2
:1021A000351FD9012C91022E000C330B205331091D
:1021B0002A30310530F49F5FE8CF20E0F4CF81E092
:1021C000089580E00895CF92DF92EF92FF9228E089
:1021D00030E040E050E00E94F1296B01CA01B901F2
:1021E0000E9494280E941F2ACB010E94440390E081
:1021F00027E030E02C193D0902C0959587952A9576
:10220000E2F78170FF90EF90DF90CF9008950F93E9
:102210001F93CF93DF938C01EB01FC0180819181AF
:102220000097E1F06881798161157105A9F042811B
:1022300053812C813D814217530770F00E94D92EA3
:102240008C819D81F801958384831D821C82DF919E
:10225000CF911F910F9108950E944E2D88819981F1
:10226000F801918380838A819B81938382838C810F
:102270009D8195838483198218821B821A82E5CFFF
:10228000CF93DF93EC0188819981009711F00E9430
:102290004E2D198218821D821C821B821A82DF91A8
:1022A000CF910895FC0180819181009711F00C94E9
:1022B0004E2D0895CF93DF93EC01898D9A8D009771
:1022C00041F00E94F30C898D9A8D0E944E2D1A8E3A
:1022D000198EDF91CF9108950F931F93CF93DF93C2
:1022E000EC0188819981009759F02A813B8126175A
:1022F000370730F081E0DF91CF911F910F91089562
:102300008B016F5F7F4F0E94D72D009759F0998303
:1023100088831B830A832C813D81232B59F7FC0181
:102320001082E8CF80E0E7CFEF92FF920F931F93E8
:10233000CF93DF93EC018617970781F0FB010081B3
:1023400011810115110539F0E480F580B7010E9473
:102350006C1181110BC0CE010E944011CE01DF91A2
:10236000CF911F910F91FF90EF900895FD82EC8225
:10237000B801888199810E94D92EF0CFEF92FF9207
:102380000F931F93CF93DF93EC017B011982188287
:102390001B821A821D821C82FB0101900020E9F73A
:1023A00031978F01061B170BB8010E946C11811128
:1023B00009C0CE01DF91CF911F910F91FF90EF9057
:1023C0000C9440111D830C83B70188819981DF91A2
:1023D000CF911F910F91FF90EF900C94D92ECF9237
:1023E000DF92EF92FF920F931F93CF93DF931F9291
:1023F0001F92CDB7DEB78C016B0164E472E00E94DE
:10240000BE11C6010E94EF0397FD21C08A309105DD
:10241000F1F089831A82F801E480F580FFEFEF1A6A
:10242000FF0AB701C8010E946C11882351F3F8011B
:102430002081318184819581BE016F5F7F4F820F42
:10244000931F0E94D92EF801F582E482DACFC801E9
:102450000F900F90DF91CF911F910F91FF90EF9010
:10246000DF90CF900895BF92CF92DF92EF92FF92CC
:102470000F931F93CF93DF931F921F92CDB7DEB7B9
:102480008C016B0164E472E00E94BE11B12C2B2D13
:1024900030E0F601848195812817390790F5808115
:1024A0009181009761F1820F931FFC018081282F99
:1024B000082E000C330B205331092A303105E8F483
:1024C00089831A82F801E480F580FFEFEF1AFF0A92
:1024D000B701C8010E946C11882379F0F8012081AE
:1024E000318184819581BE016F5F7F4F820F931F81
:1024F0000E94D92EF801F582E482B394C8CF80E01F
:10250000D6CFC8010F900F90DF91CF911F910F91FF
:10251000FF90EF90DF90CF90BF900895FB01019066
:102520000020E9F73197AF01461B570BDC01ED9115
:10253000FC910280F381E02D19948F929F92AF92CB
:10254000BF92EF92FF920F931F93CF93DF93CDB77C
:10255000DEB7A1970FB6F894DEBF0FBECDBF7C01EA
:10256000FA01CB0119A2223008F42AE08E010F5D96
:102570001F4F822E912CB12CA12CBF01A5019401DB
:102580000E94CF29F901CA016A300CF5605DD801BB
:102590006E938D01232B242B252B79F790E080E07F
:1025A000109721F0BD01C7010E948E12A1960FB6AF
:1025B000F894DEBF0FBECDBFDF91CF911F910F9179
:1025C000FF90EF90BF90AF909F908F900895695CBF
:1025D000DECF8F929F92AF92BF92CF92DF92EF9217
:1025E000FF920F931F93CF93DF9300D01F92CDB72D
:1025F000DEB77C0180E2689FF0011124ED5CFA4FA8
:1026000093859171A9F0842F827491F080E00F90EE
:102610000F900F900F90DF91CF911F910F91FF902E
:10262000EF90DF90CF90BF90AF909F908F900895E4
:10263000142FD70152966C935297409100025091FB
:10264000010260910202709103021E964D935D9308
:102650006D937C93519784889588B12CA12C54015B
:102660009924882457968D929D92AD92BC925A9748
:10267000828D938DB0E0A0E0AC01BD0148295929BD
:102680006A297B29D70157964D935D936D937C936F
:102690005A978385887109F08CC0848D958DA68D9D
:1026A000B78DF701838B948BA58BB68B81E08583E7
:1026B000812F8F70D70114968C931497F70116828F
:1026C0001782108611861A961D921D921D921C92D9
:1026D0001D9716FF84C015968C911597813009F0CF
:1026E00095CF11FF93CF53968D919D910D90BC91F5
:1026F000A02D892B8A2B8B2B09F471C040E050E070
:10270000BA01C7010E94BB0A882309F47FCFF701F1
:10271000C38CD48C8788908CA18CB28C82E090E0A2
:10272000A0E0B0E0F60180839183A283B3839E0191
:102730002F5F3F4FB501A401C6010E947B0988238A
:1027400009F464CF00E010E09801B501A401C601CE
:102750000E94D908882309F459CF89809A80AB80D8
:10276000BC80D60157968C918031A1F188EF9FEF04
:10277000AFEFBFE088169906AA06BB06C0F2F701C4
:10278000178A108E118E128E138A148A158A168A51
:1027900084818068848361E0C7010E944F0C882394
:1027A00009F434CF40E050E0BA01C7010E94BB0AEF
:1027B0002ECF803109F02ACF97012D5E3F4F5B96D7
:1027C0008D919C910E94FC09882309F41FCF84E01D
:1027D000F7016DCF88EF9FEFA0E0B0E0CBCF81E0B5
:1027E00016CF3F924F925F926F927F928F929F92FD
:1027F000AF92BF92CF92DF92EF92FF920F931F930F
:10280000CF93DF9300D000D000D01F921F92CDB79E
:10281000DEB77C01FE013196CE010C966F0130E2ED
:102820003193E817F907E1F7DA0130E087E09D918D
:10283000B92E992309F43CC09E32F1F48A30C9F4D0
:1028400080E02B960FB6F894DEBF0FBECDBFDF91B0
:10285000CF911F910F91FF90EF90DF90CF90BF909D
:10286000AF909F908F907F906F905F904F903F9030
:10287000089538E08AE0DBCFEAE2F2E044914423B5
:1028800021F031969413FACFDBCF8317C8F24FEDC6
:10289000490F4E35A8F64FE9490F4A3118F440EE7A
:1028A000B42EB90EF601E30FF11DB0823F5FBFCF2A
:1028B0008981803229F2322E8B01DB015B968D916A
:1028C0009C915C97F701948F838F16961D921D92B1
:1028D0001D921C921997FB01128613861486158689
:1028E000F80182859385A485B585438954896589D6
:1028F000768984179507A607B70708F04DC025E02D
:10290000B695A795979587952A95D1F7F82FFF70DB
:10291000AF2ED80115968C91823008F491CFC80162
:102920000E94740F97FD8CCFF80182859385A48552
:10293000B5854F96A11DB11D82879387A487B58762
:10294000F0E2AF9EB00111246D5C7A4F6115710504
:1029500009F476CFDB018C91882341F0853E09F0A4
:1029600062C0BB2029F0BB24B394BACFB1100EC013
:10297000F701A28A8091000290910102A0910202C7
:10298000B091030286879787A08BB18BDB018C9176
:102990008111E9CFBB24B394832D8271823109F078
:1029A0004FCFBB2009F44DC0F7016685778580893C
:1029B000918941E00E946607882309F441CFD7013D
:1029C00052968C91B0E28B9FC00111248D5C9A4F7E
:1029D000009709F435CFFC013A9626E1DF011D92FC
:1029E0002A95E9F72BE0F601DC0101900D922A957A
:1029F000E1F721E238E2FC01318B208B40E058E026
:102A000057874687338B228B318F208F578B468B8E
:102A100081E00E943B07882309F412CF432DD701A0
:102A200052966C910AC04BE050E0C6010E94B82E4D
:102A3000892B09F055CF432D6A2DC7010E94E91259
:102A400000CFF8018581823009F4FACEC8010E94D6
:102A50004F0B882309F4F4CED8015B96ED91FC91DD
:102A60005C9716968D909D90AD90BC901997B2E0B2
:102A70008B1A9108A108B108858504C0880C991C9F
:102A8000AA1CBB1C8A95D2F786859785A089B18937
:102A9000880E991EAA1EBB1E848124013501480E92
:102AA000511C611C711C84149504A604B70409F11F
:102AB000E1E04E1A51086108710881E00E943B076D
:102AC000882309F4BDCEE3E3F5E0119283E397E0B8
:102AD0008E179F07D1F74092000250920102609238
:102AE00002027092030280911C05816080931C0594
:102AF000DACFD8015B96ED91FC91258580E092E0DC
:102B0000A0E0B0E004C0880F991FAA1FBB1F2A9540
:102B1000D2F7F8014389548965897689840F951F16
:102B2000A61FB71F838B948BA58BB68BD7015296AC
:102B30001C9283E395E04FCFCF9389E00E94D401AC
:102B400060E089E00E94B80260E08BE00E94B80279
:102B500060E08CE00E94B80260E08DE00E94B80264
:102B6000C6E160E08C2F0E94B802CF5FCE31C9F77A
:102B7000CFE160E08C2F0E94B802CF5FC632C9F768
:102B8000CAE260E08C2F0E94B802CF5FC233C9F75F
:102B9000CF91089589E00E94D40161E089E00C940E
:102BA000B8022F923F924F925F926F927F928F92D4
:102BB0009F92AF92BF92CF92DF92EF92FF920F93CC
:102BC0001F93CF93DF93CDB7DEB7C257D4400FB674
:102BD000F894DEBF0FBECDBF2DB73EB7C559DB4F52
:102BE00039832883CB56D44088E291E0AE014F5F11
:102BF0005F4FDA01FC011D923197E9F79E01275DD5
:102C00003E4FD901FC011D923197E9F78E010E5D0F
:102C10001B4F85E2D8011D928A95E9F785EF93E075
:102C2000BA01E7E0FE2EFC01DB0101900D92FA945F
:102C3000E1F7685F7F4F0796B4E0883F9B0789F70D
:102C400090E080E0FC01E857FD4F7F01DA01A80F1A
:102C5000B91FC95ADB4F39832883C755D44059015E
:102C6000A80EB91E70E060E0F701D1907F01CD9011
:102C7000DC24F501D1925F016F5F7F4F68307105F1
:102C800099F708968832F1E09F07E1F6C35ADB4FC7
:102C900019830883CD55D440A901485D5E4FC759BB
:102CA000DB4F59834883C956D440BE016E517C4FD7
:102CB000C95BDB4F79836883C754D440CE01865EFD
:102CC0009C4FC75BDB4F99838883C954D440ADB711
:102CD000BEB7CC59DB4FB983A883C456D4406091AA
:102CE000380870913908072E000C880B990B0E9448
:102CF00094289B01AC0160E070E080E090E40E94C9
:102D00004E2A0E94182A4B013B019B012F5F3F4F27
:102D1000C9010196889DA001899D500D989D500D77
:102D20001124EDB7FEB7E41BF50B0FB6F894FEBF08
:102D30000FBEEDBF4DB75EB74F5F5F4F7A016DB706
:102D40007EB7681B790B0FB6F8947EBF0FBE6DBFC0
:102D5000ADB7BEB71196C35BDB4FB983A883CD5423
:102D6000D440EDB7FEB7E81BF90B0FB6F894FEBFE1
:102D70000FBEEDBF4DB75EB74F5F5F4FCF5ADB4F12
:102D800059834883C155D4406DB77EB7681B790B12
:102D90000FB6F8947EBF0FBE6DBF8DB79EB701967C
:102DA000CD5ADB4F99838883C355D440ADB7BEB7A6
:102DB000A21BB30B0FB6F894BEBF0FBEADBFEDB7ED
:102DC000FEB73196C75ADB4FF983E883C955D44023
:102DD000C95BDB4FA881B981C754D440E0E41D92A0
:102DE000EA95E9F748E050E0BE016E517C4FC95AC0
:102DF000DB4F88819981C755D4400E9439022091C8
:102E00003E0830913F08C15ADB4F39832883CF55A4
:102E1000D440220FCA5ADB4F2883C655D440C090F5
:102E20003A08D0903B08312C11E0CA5ADB4F388168
:102E3000C655D44031170CF43EC0C75ADB4FE88169
:102E4000F981C955D440E10FF11D17FDFA951082A3
:102E500000E09F01D9014C91802F002E000C990BAE
:102E60008C159D05D0F462EE73E06C0F7D1F860F0C
:102E7000971FDC018C91882371F01002C00111248E
:102E8000B6010E94A729DC01A85CB74F50968C912F
:102E90004827D9014C930F5FDDCF442311F0332431
:102EA0003394042E000C550BDA01A857B74F8C91C0
:102EB00080831F5FBACF332009F483C3C35BDB4F2A
:102EC000E881F981CD54D4401082C75ADB4FA881E4
:102ED000B981C955D44011968C918183F701108234
:102EE000E80DF91D21E020838E2DF70131969E2FEC
:102EF000981BCA5ADB4F3881C655D44093173CF40F
:102F00004FEF4083DF01A60DB71D1C92EFCFCF5AC4
:102F1000DB4FA881B981C155D4401C9211961C92F7
:102F200011972FEFCD5ADB4FE881F981C355D4407B
:102F300020831182C35BDB4F48815981CD54D4403B
:102F40004F5F5F4FC55BDB4F59834883CB54D44001
:102F50008D010F5F1F4F3296CF59DB4FF983E88306
:102F6000C156D440C401880F991FF701E80FF91F1B
:102F7000C55ADB4FF983E883CB55D44044244394AE
:102F8000512C60E0CA59DB4F6883C656D440242CCC
:102F9000F1E0F60FCD59DB4FF883C356D440C55B43
:102FA000DB4FE881F981CB54D4407191C55BDB4F95
:102FB000F983E883CB54D440D801ED918D01CB5AED
:102FC000DB4FE883C555D440C55BDB4F2881398191
:102FD000CB54D440C35BDB4F48815981CD54D4409E
:102FE000241B350BC15BDB4F39832883CF54D4407E
:102FF000FA01E40DF51D7F3F09F042C0CB5ADB4FCB
:10300000E881C555D440EC93FD0131972081C95921
:10301000DB4F2883C756D44060E0649C9001659CD8
:10302000300D749C300D1124C15BDB4F48815981F8
:10303000CF54D440649EC001659E900D749E900D47
:103040001124C959DB4F5881C756D44056170CF488
:1030500041C1A701460F511D67FD5A95DA01A20F24
:10306000B31F7C91480F591FFA017083EC910E2E0B
:10307000000CFF0BE857F74F40814C936F5FE1CF97
:1030800082918F3F21F4662341F16150F9CF66238D
:1030900021F12FEF260F822F90E0C35BDB4FE881F9
:1030A000F981CD54D440E80FF91F30813F3F99F0AA
:1030B000CD5ADB4F48815981C355D440840F951FA9
:1030C000FA01E60FF11D67FDFA953081DC018C9164
:1030D00038170CF4622F2150F0F6262F062E000C24
:1030E000330BCF5ADB4FE881F981C155D440E20F51
:1030F000F31FB081C2018B0F911DB7FD9A95821B02
:10310000930BCB5ADB4FA881C555D4404A2F0A2ECA
:10311000000C550B841795070CF08BC04A2FD80173
:103120004C9390E080E0CA5ADB4F4881C655D440AA
:1031300084170CF484C04081CB5ADB4F4883C555BB
:10314000D440F601E70FF11D77FDFA95C959DB4F21
:10315000F983E883C756D44040E0629EF001639E45
:10316000F00D729EF00D1124C359DB4FF983E883F3
:10317000CD56D440C15BDB4FE881F981CF54D440B8
:103180006E9EC0016F9E900D7E9E900D1124F701E2
:10319000E80FF91FC159DB4FF983E883CF56D440BC
:1031A000C35BDB4F68817981CD54D440620F731FBC
:1031B000CF58DB4F79836883C157D440CB5ADB4F5C
:1031C000E881C555D440E4170CF044C0F8013197AC
:1031D000508140E0C15BDB4FE881F981CF54D4409E
:1031E0006E9E90016F9E300D7E9E300D1124649C6A
:1031F000C001659C900D749C900D112454170CF423
:1032000069C0F701E40FF11D47FDFA95DF01A20F38
:10321000B31FE80FF91F6C91708167276C93A08131
:103220000A2E000CBB0BA857B74F6C9160834F5F01
:10323000E5CF822D861B8B0FD8018C9372CFC55A98
:10324000DB4FA881B981CB55D440A80FB91F1C9280
:10325000019669CFE42F042E000CFF0BD701AE0FAF
:10326000BF1FC359DB4F68817981CD56D440A60F6B
:10327000B71F9C919F3F61F1E40DF51DE21BF30B1D
:10328000C159DB4FA881B981CF56D440EA0FFB1F4B
:10329000CF58DB4FA881B981C157D4408C91C9590F
:1032A000DB4F68817981C756D440681B710987FD5F
:1032B0007395DB01A90FB11D97FDBA95CD01B6013C
:1032C0000E94A729DC01A85CB74F50968C9180839F
:1032D0004F5F74CFF8014081241ACF59DB4FE8814A
:1032E000F981C156D4402192CF59DB4FF983E8834D
:1032F000C156D440CA5ADB4FF881C655D440CD5987
:10330000DB4F2881C356D4402F170CF0A7C0C75AF3
:10331000DB4FE881F981C955D440E40DF51DE18109
:10332000EF3F09F463C00E2E000CFF0BE85CF74F73
:103330008089C55BDB4FE881F981CB54D440808321
:10334000F32DC15BDB4F68817981CF54D440669EF9
:103350009001679E300D769E300D1124C55BDB4FCA
:10336000A881B981CB54D440EC914F170CF446C0DE
:103370006F2F0F2E000C770BC15BDB4FA881B9813B
:10338000CF54D440A61BB70BC75ADB4F8881998115
:10339000C955D440A80FB91F8C918F3F29F16E0DEC
:1033A0007F1DDB01A20FB31FAC91AA23E9F00A2E07
:1033B000000CBB0BA857B74F5C91082E000C990B63
:1033C000850F911D57FD9A95B6010E94A729DC0132
:1033D000A85CB74F50968C91E827C55BDB4FA8815E
:1033E000B981CB54D440EC93FF5FB8CFC55BDB4FC2
:1033F000E881F981CB54D4401082A2CF0E2E000C6C
:10340000FF0BE857F74F8081C55BDB4FE881F981FF
:10341000CB54D4408083FFEF4F1A5F0AC55ADB4F6D
:1034200028813981CB55D440260D371DC55ADB4F35
:1034300039832883CB55D440CD59DB4F6881C3569F
:10344000D440042E000C550BC15ADB4FE881F981A2
:10345000CF55D440E417F5070CF094CDCA59DB4F93
:103460008881C656D4408E5F082E000C990BCF5A27
:10347000DB4FE881F981C155D440E80FF91F208165
:10348000622F022E000C770B40913E0850913F08AE
:10349000461757070CF495C030E0689EA001699E5E
:1034A000500D789E500D112423170CF045C0FE01DD
:1034B000EF5AFD4F889DA001899D500D989D500D9C
:1034C000112490E080E08F010196319628170CF0CE
:1034D00044C0E0903A08F0903B08AE2C432D30E019
:1034E000842F042E000C990BE816F90608F44DC041
:1034F0006801FFEFCF1ADF0AB32CE1E0F0E02E17EE
:10350000A4F1D6018D916D018F3FA1F0BF01680F2D
:10351000711D87FD7A95CB01B7010E94A729D601BD
:1035200011978C93A82F880FBB0BA85CB74F5096B0
:103530008C91B8263196E3CFD701A30FB11D37FD8B
:10354000BA95A40FB51FEC910E2E000CFF0BE85797
:10355000F74F60816C933F5FA7CFDA01A80FB91FC7
:10356000AE0DBF1D3C913083AFCFB1100CC0EAE16E
:10357000F3E0EC0FFD1FE30FF11D37FDFA958A2DE7
:10358000841B80833F5F4F5FABCF23131AC0FE01C4
:10359000E65EFC4F8E2FC75BDB4F7881C954D44069
:1035A000871B831774F48191A2EEB3E0AC0FBD1FAB
:1035B000A80FB11D87FDBA958C9191E089278C9356
:1035C000E9CF40913C0850913D0880913A08909194
:1035D0003B08841B950BC35ADB4F68817981CD551D
:1035E000D440A2EEB3E0AC0FBD1F8A0F9B1F0E9418
:1035F000F301CC59DB4FE881F981C456D4400FB6B2
:10360000F894FEBF0FBEEDBFC95ADB4F2881398148
:10361000C755D440285F3F4FC95ADB4F39832883B1
:10362000C755D440C35ADB4F48815981CD55D4404A
:103630004F5F5F4FC35ADB4F59834883CD55D4400A
:10364000C759DB4F68817981C956D440261737079F
:1036500009F03DCB10E000E0F12CE12CF0E0E0E0DF
:1036600087E0C82ED12CC70188509B4F5C01A2E295
:10367000B4E0AC0FBD1FA00FB11F2C9130E0CF0103
:10368000B6010E94BB29D601A81BB90B02C0359513
:103690002795AA95E2F72170D5018C91282B3196B8
:1036A000CF0187709927892BA9F52C93BFEFEB1ACF
:1036B000FB0ACF01B6010E94BB29892B11F40F5FD1
:1036C0001F4FE11571E0F70771F6C559DB4FE8812F
:1036D000F981CB56D4400FB6F894FEBF0FBEEDBFB4
:1036E000CE58DB4F0FB6F894DEBF0FBECDBFDF91D3
:1036F000CF911F910F91FF90EF90DF90CF90BF90EF
:10370000AF909F908F907F906F905F904F903F9081
:103710002F900895220F2C93CCCFEF92FF920F930E
:103720001F93CF93DF93EC017B018A011B821A82E6
:1037300088EE93E0A0E0B0E08C839D83AE83BF83EE
:103740008CE292E0998388838DE190E00E94B22C14
:103750009A8F898F009779F02DE1F701DC010190B4
:103760000D922A95E1F74CE050E0B801CE010C969D
:103770000E94E02E188EDF91CF911F910F91FF9044
:10378000EF9008952F923F924F925F926F927F92A7
:103790008F929F92AF92BF92CF92DF92EF92FF9261
:1037A0000F931F93CF93DF93CDB7DEB7C756D109E1
:1037B0000FB6F894DEBF0FBECDBF6C015B01A896BB
:1037C0004FAFA89719A218A280E292E09F8F8E8F28
:1037D0001BA21C821B829A8389831E824E018EE16A
:1037E000880E911CC4010E94670A75018E010F5F4B
:1037F0001F4F240118016FE270E0C7010E94CE2E16
:10380000009709F45DC0F70120812F3271F4FFEFBA
:10381000EF1AFF0A902F812F8201492E582E942DE6
:10382000852D2801092F182FE6CF8E198D3008F02D
:103830008CE0682E712CA301B701CE01885A9F4FEE
:103840000E94E02EE8E5F0E0EC0FFD1FE60DF71D0D
:103850001082C8010E94F30CF8018581882301F1D0
:103860001EAE1DAE80E292E09CAF8BAF21961FAEE4
:103870002197A796EEADFFADA797AE0EBF1EF5013F
:10388000808181112AC0BE01655C7F4FC1010E9409
:10389000AC0E4AE352E0B101C6010E948D1B3BC051
:1038A00021E0AE01485A5F4FB201C8010E94F113F6
:1038B0008823B1F2E60CF71CC2010E94F30CAFCFD3
:1038C000C7018A199B09A7969FAF8EAFA797B20130
:1038D000CE01CB960E94AC0ECCCF19A218A280E2EA
:1038E00092E09F8F8E8F1BA221968FAD2197811121
:1038F0002DC0F6011382128288EE93E0A0E0B0E0C2
:1039000084839583A683B7838CE292E0918380833E
:10391000128E118E1486C601C959DF4F0FB6F89466
:10392000DEBF0FBECDBFDF91CF911F910F91FF90F2
:10393000EF90DF90CF90BF90AF909F908F907F904F
:103940006F905F904F903F902F900895A8962FAD65
:10395000A897A501BE01655C7F4FC4010E94F113C9
:10396000882339F2CE01CB960E94F30CB401C10139
:103970000E94AC0EA5018FCFDF92EF92FF920F93C2
:103980001F93CF93DF93CDB7DEB7E3970FB6F894CD
:10399000DEBF0FBECDBFE8E8F2E088E291E0DF01D4
:1039A0009C011D9221503040E1F76CE372E0CE01A2
:1039B00082960E94BE1164E472E0CE0188960E9455
:1039C000BE1164E472E0CE018E960E94BE116AA11F
:1039D0007BA141E0CE0101960E94C21BCE0101965F
:1039E0000E946B028DE198E00E94FC0E882309F48E
:1039F00087C0F12CE12C10E000E08DE198E00E94FE
:103A0000110F892B09F478C06DE178E0CE010196A1
:103A10000E94EF11BE016F5F7F4FCE0188960E941A
:103A20000711CE0101960E9452111A8219821C823E
:103A30001B821E821D82BE01685D7F4FCE010196F2
:103A40000E949411BE016F5F7F4FCE014C960E9481
:103A50003312BE01645E7F4FCE018E960E94071125
:103A6000CE014C960E945211CE0101960E94521135
:103A70001A8219821C821B821E821D82BE01625D17
:103A80007F4FCE0101960E9494118D819E81D12C91
:103A9000892B29F0CE0101960E94C110D82ECE01AB
:103AA00001960E945211DD2009F4A7CF8EA59FA593
:103AB0000097B9F00E9456280E94E310882331F045
:103AC000F801E857FD4F8081816080833FEFE31A62
:103AD000F30AC70187709927892B39F40F5F1F4FAD
:103AE0008CCF60E070E0CB01E7CFF801E857FD4FE5
:103AF0008081880F808381CF8DE198E00E945A11E8
:103B0000CE018E960E945211CE0188960E945211CB
:103B1000CE0182960E945211E3960FB6F894DEBF52
:103B20000FBECDBFDF91CF911F910F91FF90EF900E
:103B3000DF9008952F923F924F925F926F927F9203
:103B40008F929F92AF92BF92CF92DF92EF92FF92AD
:103B50000F931F93CF93DF93CDB7DEB7C158D240F9
:103B60000FB6F894DEBF0FBECDBF2DB73EB7C0581D
:103B7000DD4F39832883C058D24064E472E0CE011F
:103B800088589D4F0E94BE1180912205833609F00E
:103B90004EC0E0912305E852E03108F000C50E2E3A
:103BA000000CFF0B8827E852F24E8F4F0C94102A1E
:103BB000E81D411E6A1E9B1ECF22CF22CF221E1F50
:103BC000F71EC51EB51F6F1FD91FEF1F7D21612274
:103BD0000E949C1580912405181634F468EE73E059
:103BE00080E090E00E9484030E94A2028C0183E6A0
:103BF00090E00E94050588E290E00E940505812F73
:103C000090E00E940505C80199270E94050500E281
:103C100010E090E080E00E94050501501109C9F70D
:103C2000E2E2F5E086E0DF011D928A95E9F7CE0138
:103C300088589D4F0E945211C058DD4FE881F9818C
:103C4000C058D2400FB6F894FEBF0FBEEDBFCF579D
:103C5000DD4F0FB6F894DEBF0FBECDBFDF91CF9121
:103C60001F910F91FF90EF90DF90CF90BF90AF909A
:103C70009F908F907F906F905F904F903F902F908C
:103C800008950E94CA1580912405181634F468EE30
:103C900073E080E090E00E9484030E94A2028C0105
:103CA00083E690E00E94050589E290E00E94050508
:103CB000812F90E00E940505C80199270E94050503
:103CC00000E210E090E080E00E940505015011093B
:103CD000C9F7A6CF009124051091250583E690E051
:103CE0000E9405058AE290E00E940505812F90E080
:103CF0000E940005C80199270E94000575E0000F89
:103D0000111F7A95E1F71093190500931805F12C0E
:103D1000E12CC701800F911F0E944403682F85E3A7
:103D200097E00E94B3043FEFE31AF30A40E2E4167F
:103D3000F10479F775CF00912405109125051093B2
:103D400019050093180583E690E00E9405058BE2B3
:103D500090E00E940505812F90E00E940005C801B7
:103D600099270E940005C8010E944403682F85E33B
:103D700097E00E94B3040FE110E090E080E00E9421
:103D8000050501501109C9F74BCFE0902405F090CB
:103D90002505009126051091270583E690E00E94F5
:103DA000050581E390E00E940505812F90E00E94C7
:103DB0000505802F90E00E9405058F2D90E00E9460
:103DC00005056E2D85E397E00E94B304B701C80195
:103DD0000E94E31090E00E9405050DE110E090E0E4
:103DE00080E00E94050501501109C9F719CF009123
:103DF000240510912505109319050093180560916D
:103E00002605C8010E94B60383E690E00E940505DE
:103E100080E390E00E940505812F90E00E9400055C
:103E2000C80199270E94000500E210E090E080E0C0
:103E30000E94050501501109C9F7F2CE0091240531
:103E40001091250583E690E00E9405058FE290E041
:103E50000E940505812F90E00E940005C801992766
:103E60000E94000565E0000F111F6A95E1F71093AD
:103E700019050093180580912605F12CE12C81305D
:103E8000B9F46701C00ED11E6FEFC6010E94B603E0
:103E9000C6010E944403682F85E397E00E94B304A3
:103EA0006FEFE61AF60A70E2E716F10451F7B8CEA2
:103EB0006701C00ED11E60E0C6010E94B603C601B4
:103EC0000E944403682F85E397E00E94B3048FEFBC
:103ED000E81AF80A90E2E916F10451F7A1CEC09071
:103EE0002405D0902505E0902605F09027052AE0CE
:103EF000B701A601F7FE0DC06DE28DE198E00E94CA
:103F00005E0F44275527BA014C195D096E097F09D8
:103F10002AE08DE198E00E949D1262E472E08DE15A
:103F200098E00E948E1283E690E00E94050583E3EC
:103F300090E00E9405058F2D90E00E9405058E2DD2
:103F400090E00E9405058D2D90E00E9405058C2DC6
:103F500090E00E9405050EE110E090E080E00E94F4
:103F6000050501501109C9F75BCE42E56CE372E02B
:103F7000CE0101960E94C21BCE0101960E946B02E7
:103F800083E690E00E94050582E390E00E9405052B
:103F90008DE198E00E94FC0E90E00E94050501E290
:103FA00010E090E080E00E94050501501109C9F77A
:103FB00037CE8DE198E00E945A1183E690E00E948E
:103FC000050584E390E00E94050502E210E090E020
:103FD00080E00E94050501501109C9F721CE0E9419
:103FE000CA150E94BC1C0E949C1580E2E8E8F2E021
:103FF000A5EDB3E001900D928A95E1F730E020E065
:10400000F12CE12CF0E0E0E047E0B42E57E0C52EC3
:10401000D12C890100551C4FD701AB52BC4F8C915C
:1040200090E0AF0147705527BB2DB41B02C095959A
:104030008795BA95E2F780FF04C0D8018C91816022
:104040008C933196D8014C91440FCF01B6010E9458
:10405000BB29D8014C93892B11F42F5F3F4FCF011F
:1040600087709927892B19F4BFEFEB1AFB0AE1152A
:10407000A1E0FA0771F6F901E055FC4F8081880F45
:10408000880F880F808330EB232E33E0332E8E0190
:104090000F5A1D4FFE01E75DFE4F2F019E012F5F5E
:1040A0003F4F39016DB77EB7C258DD4F79836883C2
:1040B000CE57D240D301E8E01D92EA95E9F741E0FE
:1040C00050E0B301C1010E94390220913A083091B9
:1040D0003B0880913C08482F50913D08D901A41B12
:1040E000B50B6DB77EB76A1B7B0B0FB6F8947EBF1E
:1040F0000FBE6DBF6F5F7F4F90E0E92F092E000C60
:10410000FF0BEA17FB0728F4E60FF71F10829F5FEB
:10411000F4CF690191E0C91AD108C41AD50AFF2465
:10412000FA94F20EF81AEE24E3949091C8089111D3
:1041300001C0E12C8150082E000C990BC60ED71E31
:104140004F2D0F2C000C550B87FD2FC0F301E80FEE
:10415000F91FB080F601A081BA120BC0FB01E40F79
:10416000F51F2F2D31971216ECF430813183215039
:10417000F9CF9A01FB01E40FF51FBA26121674F469
:10418000DF011197AC90D901A853B74FAC91A111A1
:10419000AB24A082215031093197F0CFDB01EC92A2
:1041A0000197D2CFFB011082FBCFA0903C08B090CA
:1041B0003D08E0903A08F0903B08EA18FB084701F8
:1041C0008A0C9B1C2DB73EB7281939090FB6F894F5
:1041D0003EBF0FBE2DBF8DB79EB701966C01A701E4
:1041E0000E94C52EA501B301C6018E0D9F1D0E9420
:1041F000C52EA401B201C6010E94F301C258DD4FD1
:10420000A881B981CE57D2400FB6F894BEBF0FBE79
:10421000ADBFBFEF2B1A3B0AE8E04E0E511C401613
:10422000510609F03FCF90E080E029E2E22EFF2422
:10423000F394EC0EFD1EE80EF91EDC01A857BD4FED
:1042400093016301C80ED91E48E050E0F701619167
:104250007F017D916727F60161936F0141505109FC
:10426000A9F708968832F1E09F07F9F685EFE82E66
:1042700083E0F82EC70147E0F901DC0101900D92BF
:104280004A95E1F70796285F3F4F44E0883F94073F
:1042900091F742E565E472E0C8010E94C21BC801C3
:1042A0000E94FC0E8823B9F0D7014D917D0150E0AA
:1042B00070E060E02AE0C8010E949D1262E472E0B2
:1042C000C8010E948E12B8EFEB16B4E0FB0661F74E
:1042D000C8010E945A1183E690E00E94050585E31B
:1042E00090E00E94050502E210E090E080E00E946C
:1042F000050501501109C9F793CC0E94BC1CE5EFDC
:10430000F3E088E291E0DF019C011D9221503040F2
:10431000E1F765E472E0CE018E589D4F0E94BE1118
:1043200064E472E0CE0184599D4F0E94BE1164E4A2
:1043300072E0CE018F5A9D4F0E94BE11CE58DD4FC4
:1043400068817981C257D24041E0CE0101960E9436
:10435000C21BCE0101960E946B028DE198E00E9483
:10436000FC0E882309F47EC005EF13E08DE198E090
:104370000E94110F892B09F471C06DE178E0CE0124
:1043800001960E94EF11BE016F5F7F4FCE018459ED
:104390009D4F0E940711CE0101960E945211C75DE8
:1043A000DE4F19821882C952D140C55DDE4F198295
:1043B0001882CB52D140C35DDE4F19821882CD5294
:1043C000D140BE0164597D4FCE01875D9E4F0E9452
:1043D0009411BE01675D7E4FCE0101960E9433129B
:1043E000BE016F5F7F4FCE018F5A9D4F0E94071114
:1043F000CE0101960E945211CE01875D9E4F0E9410
:1044000052111A8219821C821B821E821D82BE01D9
:104410006F5A7D4FCE0101960E9494118D819E812D
:10442000F12C892B29F0CE0101960E94C110F82EA3
:10443000CE0101960E945211FF2009F497CFCF5A66
:10444000DD4F88819981C155D24060E0009711F01D
:104450000E945628D8016D938D0188CF8DE198E098
:104460000E945A11CE018F5A9D4F0E945211CE01C7
:1044700084599D4F0E945211CE018E589D4F0E942B
:1044800052110E94D11583E690E00E94050586E353
:1044900090E00E94050590E080E00E94050590E014
:1044A00080E00E94050508EF14E0F80161918F019A
:1044B00085E397E00E94B304F5E008311F07A9F7F0
:1044C000AFCB8CE99FEF0E94050565E377E0CE0155
:1044D00001960E94EF11BE016F5F7F4FCE01885899
:1044E0009D4F0E940711CE0101960E94521142E594
:1044F0006BE472E0CE0101960E94C21BCE010196D0
:104500000E946B0265E572E085E397E00E948E12DF
:1045100062E472E085E397E00E948E128DE198E0FC
:104520000E94FC0E882381F1C458DD4F48815981D7
:10453000CC57D240C858DD4F68817981C857D240E6
:104540008DE198E00E94410F62E472E08DE198E015
:104550000E948E128DE198E00E945A1183E690E04D
:104560000E94050587E390E00E94050581E090E048
:104570000E94050501E210E090E080E00E94050540
:1045800001501109C9F74CCB83E690E00E94050564
:1045900087E390E00E94050590E080E0E9CF83E6A4
:1045A00090E00E94050503E210E090E080E00E94A8
:1045B000050501501109C9F733CB1F920F920FB6B1
:1045C0000F9211242F933F938F939F93AF93BF9399
:1045D00080912B0590912C05A0912D05B0912E0571
:1045E00030912A0523E0230F2D3758F50196A11DA0
:1045F000B11D20932A0580932B0590932C05A09341
:104600002D05B0932E0580912F0590913005A09136
:104610003105B09132050196A11DB11D80932F0582
:1046200090933005A0933105B0933205BF91AF91BF
:104630009F918F913F912F910F900FBE0F901F90E0
:10464000189526E8230F0296A11DB11DD2CF1F9207
:104650000F920FB60F9211240BB60F922F933F9328
:104660004F935F936F937F938F939F93AF93BF937A
:10467000EF93FF9385E397E00E949104FF91EF9100
:10468000BF91AF919F918F917F916F915F914F916A
:104690003F912F910F900BBE0F900FBE0F901F9068
:1046A00018951F920F920FB60F9211240BB60F920E
:1046B0002F938F939F93EF93FF93E0914507F09192
:1046C00046078081E0914B07F0914C0782FD1DC0A9
:1046D000908180914E078F5F8F7320914F078217D3
:1046E00041F0E0914E07F0E0EB5CF84F958F80933E
:1046F0004E07FF91EF919F918F912F910F900BBEDD
:104700000F900FBE0F901F9018958081F2CFE5E3B8
:10471000F7E01382128288EE93E0A0E0B0E0848399
:104720009583A683B7832EE032E03183208325EC86
:1047300030E03587248724EC30E03787268720EC6B
:1047400030E0318B208B21EC30E0338B228B22EC5C
:1047500030E0358B248B26EC30E0378B268B118EA6
:10476000128E138E148EE2EDF7E020E52083118285
:10477000E4EDF7E0158216821186138642E050E0E0
:1047800060E070E0448755876687778713A215A697
:1047900014A620E232E033A722A717A640E050E893
:1047A00060E070E0409302095093030960930409AC
:1047B00070930509E8E3F8E026E030E031832083D8
:1047C0002FE330E03383228327E030E035832483F6
:1047D0002FE030E0378326832FE130E031872087D8
:1047E00025E220930009EDE1F8E013821282848330
:1047F0009583A683B7838CE292E091838083128EA7
:10480000118E14860895CF93DF931F92CDB7DEB734
:10481000789484B5826084BD84B5816084BD85B59B
:10482000826085BD85B5816085BD80916E008160A7
:1048300080936E001092810080918100826080934D
:10484000810080918100816080938100809180004F
:104850008160809380008091B10084608093B1007A
:104860008091B00081608093B0008091910082605F
:10487000809391008091910081608093910080915C
:1048800090008160809390008091A100826080936D
:10489000A1008091A10081608093A1008091A0007F
:1048A00081608093A000809121018260809321012A
:1048B000809121018160809321018091200181609C
:1048C0008093200180917A00846080937A008091A7
:1048D0007A00826080937A0080917A008160809370
:1048E0007A0080917A00806880937A001092C100EB
:1048F00080E090E8A0E0B0E0809302099093030983
:10490000A0930409B093050980EE84B98FEF81B9B3
:104910008FE787B989E00E94D401E0914507F091C3
:10492000460782E08083E0914107F09142071082C0
:10493000E0914307F091440780E1808310924D0796
:10494000E0914907F0914A0786E08083E0914707AC
:10495000F0914807808180618083E0914707F09162
:104960004807808188608083E0914707F09148077D
:10497000808180688083E0914707F09148078081BB
:104980008F7D808368EE73E080E090E00E94840376
:1049900086E090E090933908809338088FE390E0A8
:1049A00090933B0880933A0887E090E090933D080D
:1049B00080933C088FE090E090933F0880933E08FE
:1049C0008FE190E0909341088093400885E28093C6
:1049D000000980E4E8E4F8E0DF01482F1D924A95E1
:1049E000E9F7E8E8F8E0DF011D928A95E9F7E8ECDD
:1049F000F8E088E3DF011D928A95E9F710924408F8
:104A000010924508109246081092470881E0809362
:104A100048088093420880934308E2E4F8E020E0ED
:104A200081E090E08683482F082E000C550B4857F4
:104A3000574FDA012C9330813196332329F030918E
:104A40004E08382730934E08880F991F2F5F263065
:104A500049F7E0914E080E2E000CFF0BE857F74F78
:104A600020839C0135952795AEE4B8E047E08D9111
:104A7000082E000C990B821793070CF4C5C08227EF
:104A80009327880F991F90914E0889278C93EC915A
:104A90000E2E000CFF0BE857F74F40834F5F4F334C
:104AA00031F78FEF809388082DB63EB64DB75EB7CD
:104AB000405851400FB6F8945EBF0FBE4DBF2DB7A2
:104AC0003EB72F5F3F4F6DB77EB7605471090FB689
:104AD000F8947EBF0FBE6DBFEDB7FEB731968DB7B0
:104AE0009EB7805491090FB6F8949EBF0FBE8DBF3C
:104AF0000DB71EB70F5F1F4FADB7BEB7A054B109BA
:104B00000FB6F894BEBF0FBEADBF4F5B51097A011F
:104B100080E891E0D901AC011D9241505040E1F78D
:104B2000AF014E5F5F4F8EE3DA011D928A95E9F780
:104B300080E4D801482F1D924A95E9F7D7011D92CC
:104B40008A95E9F7D9011C9281E0808316968C93AF
:104B5000818341E076E0572EAFE3AA2EB12C842F5B
:104B6000042E000C990B3F01680E791ED301BC91F5
:104B7000B983412C589E6001599ED00C1124C20E5D
:104B8000D31E43944601840C911C47FC9A94D40193
:104B900011978C91880F990BB5010E94A729D40118
:104BA0008C939980940C880F991FB5010E94A729B6
:104BB000D6019C919813E5CFD3019C9250E05F5FA2
:104BC000D12CCC24C3944C1524F1D11025C0DF0185
:104BD000AC0DB11DC7FCBA959C90BC2D852DB802BB
:104BE000B001112490E080E089158CF4D1100FC041
:104BF000DB01A80FB91FA20FB31FDD24D394AC9122
:104C0000A513D12C0196F0CF880F991F3FCFC394E5
:104C1000DACFDD2009F434C25E3389F6D12C90E07E
:104C200081E056E0A52E48178CF5902E3801CC2453
:104C3000C39446E0842E862D891989170CF067C02D
:104C4000D3016D913D01AF01460F511D67FD5A958E
:104C5000DA018C91B82D6B02B001112450E040E0D4
:104C60001C2D140F48170CF04EC05701A10EB11C9B
:104C700017FDBA948B01040F151F020F131FD801E3
:104C80001C91D5011C934F5F5F4FEACF3801690E2D
:104C9000711C97FD7A94D3011C92BF01680F711D9E
:104CA00087FD7A95DB019C90B901BA2D8B02600DCE
:104CB000711D112450E0B12CB914BCF4511115C070
:104CC000CC24C394DB015C915C110DC0D3018C93A7
:104CD00051E0C394BFE1CB1611F0552399F3B3947F
:104CE0006F5F7F4FE9CF50E0F4CFD3015C91552344
:104CF00041F0DF01A50FB11D57FDBA955C91D50EAE
:104D00009F5F8F5F90CF87FD80E0C80E94CF8FE3C9
:104D100090E08D199109D7FC939590933D0880936D
:104D20003C0897FF10C062E772E085E397E00E94BD
:104D30008E1262E472E085E397E00E948E1290E0AA
:104D400080E00E94EF2ED7011196EC910E2E000C00
:104D5000FF0BE85CF74F80898093C80881E080935F
:104D6000C90842E0CC24C3940FE310E0D4160CF43D
:104D700051C0842F042E000C990BFC01E853F74F0F
:104D8000C082BB24BA94B40EEB2D0B2C000CFF0B8D
:104D9000E853F74F8E0D9F1DDC012C91022E000C65
:104DA000330B1B14F4F4A081A290AA23C1F00A2EA5
:104DB000000CBB0BA857B74F8C91B901680F711D40
:104DC00087FD7A95CB01B8010E94A729DC01A85C78
:104DD000B74F50968C918A258183BA94E2CFA182F5
:104DE000FCCFE091C8080E2E000CFF0BE857F74FE0
:104DF0008081D901A80FB11D87FDBA95CD01B801F9
:104E00000E94A729FC01E85CF74F80898093C808BD
:104E10004F5FACCF0FB6F8943EBE0FBE2DBE809153
:104E20000308882321F08EEF97E00E94F30C109284
:104E3000DF071092DD071092DA071092D90787E09A
:104E40008093D8070E94E2038B018091D8070E94CB
:104E5000D40161E08091D8070E94B802FFB6F894AF
:104E600080912105811124C0E9EEF2E08491EFE206
:104E7000F3E09491E82FF0E0EE0FFF1FE656FD4FB0
:104E8000A591B491EC91E92321F461E085E30E94BE
:104E9000B80285E30E94D4018CB580618CBD8CB5CD
:104EA00080648CBD84E30E94D40183E30E94D4011A
:104EB000809121058F5F80932105FFBE82E580935D
:104EC000D2071092D3078091D2079091D3070E9406
:104ED00091052AE0F22E8FEF0E946C05FA94F110F2
:104EE000FACF84ED97E00E94940520E030E0A9011C
:104EF00060E084ED97E00E94AA05F82E8093DE071B
:104F0000B1E08B17A9F00E94E203601B710B613DB9
:104F1000774058F381E08093D90784ED97E00E94B1
:104F2000610560ED77E080E090E00E94840379C045
:104F30002AEA31E040E050E068E084ED97E00E942A
:104F4000AA0582FF2AC0F092DF078091DF07C12CFB
:104F5000D12C7601823029F4C12CD12CE12C80E4B3
:104F6000F82E20E030E0A90167E384ED97E00E948D
:104F7000AA05A701960169E284ED97E00E94AA05BF
:104F80008093DE078823D1F00E94E203601B710B3F
:104F9000613D774030F388E0BECF94E0F92E0E9467
:104FA00073058093DE07FA94F110F9CF8A3A11F075
:104FB00082E0B1CF82E08093DF07C7CF8091DF0727
:104FC0008230D1F420E030E0A9016AE384ED97E07B
:104FD0000E94AA05882311F086E09DCF0E947305E8
:104FE000807C803C19F483E08093DF070E94730586
:104FF0000E9473050E94730584ED97E00E9461058D
:1050000080E58093D2071092D30781E00E94B00719
:10501000882379F18EEF97E00E94670A882309F4CC
:1050200080CF89E00E94D40185E397E00E947B0451
:1050300018161906DCF485E397E00E9459042091C4
:10504000280530912905F901EE5DFA4F80832F5F25
:105050003F4F30932905209328052630310531F440
:105060000E949A1D10922905109228050E942A0577
:10507000DBCF80E00E94B007882309F452CFCACF6B
:105080004F5F842F042E000C990B589ED001599E1F
:10509000B00D1124A20FB31F5C938E0F9F1F61E010
:1050A000DC016C935E3309F05ACDB8CD1F93FC013F
:1050B00099278827BC01E89411911032E9F319303F
:1050C00010F01E30C8F31B3251F01D3249F46894C1
:1050D00006C00E947D28610F711D811D911D1191D7
:1050E00010531A30B0F33EF4909580957095619509
:1050F0007F4F8F4F9F4F1F910895592F482F372F64
:10510000262F660F771F881F991F660F771F881F2E
:10511000991F620F731F841F951F660F771F881FCB
:10512000991F0895E89409C097FB3EF490958095E7
:10513000709561957F4F8F4F9F4F9923A9F0F92F5D
:1051400096E9BB279395F695879577956795B795DB
:10515000F111F8CFFAF4BB0F11F460FF1BC06F5FC1
:105160007F4F8F4F9F4F16C0882311F096E911C0D3
:10517000772321F09EE8872F762F05C0662371F0F4
:1051800096E8862F70E060E02AF09A95660F771F08
:10519000881FDAF7880F9695879597F908950E94EA
:1051A000E2280C9453290E94452938F00E944C298A
:1051B00020F0952311F00C943C290C9442291124E1
:1051C0000C9487290E94642970F3959FC1F3950F71
:1051D00050E0551F629FF001729FBB27F00DB11D7B
:1051E000639FAA27F00DB11DAA1F649F6627B00D0B
:1051F000A11D661F829F2227B00DA11D621F739FF4
:10520000B00DA11D621F839FA00D611D221F749F01
:105210003327A00D611D231F849F600D211D822F48
:10522000762F6A2F11249F5750409AF0F1F088236F
:105230004AF0EE0FFF1FBB1F661F771F881F91509C
:105240005040A9F79E3F510580F00C943C290C94E6
:1052500087295F3FE4F3983ED4F386957795679569
:10526000B795F795E7959F5FC1F7FE2B880F911DC6
:105270009695879597F9089597F99F6780E870E06C
:1052800060E008959FEF80EC089500240A941616BC
:10529000170618060906089500240A941216130624
:1052A000140605060895092E0394000C11F48823B2
:1052B00052F0BB0F40F4BF2B11F460FF04C06F5FCE
:1052C0007F4F8F4F9F4F089557FD9058440F551FA4
:1052D00059F05F3F71F04795880F97FB991F61F078
:1052E0009F3F79F087950895121613061406551FEF
:1052F000F2CF4695F1DF08C0161617061806991F5B
:10530000F1CF86957105610508940895E894BB274F
:1053100066277727CB0197F908950E949829A59FC2
:10532000900DB49F900DA49F800D911D11240895A0
:10533000A29FB001B39FC001A39F700D811D1124D6
:10534000911DB29F700D811D1124911D0895AA1BFE
:10535000BB1B51E107C0AA1FBB1FA617B70710F060
:10536000A61BB70B881F991F5A95A9F78095909592
:10537000BC01CD01089597FB072E16F4009407D0C9
:1053800077FD09D00E94A72907FC05D03EF490952F
:1053900081959F4F0895709561957F4F0895A1E283
:1053A0001A2EAA1BBB1BFD010DC0AA1FBB1FEE1F9F
:1053B000FF1FA217B307E407F50720F0A21BB30BEA
:1053C000E40BF50B661F771F881F991F1A9469F766
:1053D00060957095809590959B01AC01BD01CF01C2
:1053E0000895052E97FB1EF400940E94082A57FD8D
:1053F00007D00E94CF2907FC03D04EF40C94082A52
:1054000050954095309521953F4F4F4F5F4F0895F0
:1054100090958095709561957F4F8F4F9F4F089520
:10542000EE0FFF1F881F8BBF0790F691E02D199498
:105430000E941F2A6894B1110C94872908950E9434
:105440006C2988F09F5798F0B92F9927B751B0F081
:10545000E1F0660F771F881F991F1AF0BA95C9F7F8
:1054600014C0B13091F00E948629B1E008950C94E7
:105470008629672F782F8827B85F39F0B93FCCF39A
:10548000869577956795B395D9F73EF49095809575
:10549000709561957F4F8F4F9F4F0895FA01EE0FE2
:1054A000FF1F309621053105A1F16115710561F4E9
:1054B0008038BFE39B0749F168949038810561F01B
:1054C0008038BFEF9B0741F099234AF5FF3FE10584
:1054D0003105210519F1E8940894E795D901AA232B
:1054E00029F4AB2FBE2FF85FD0F310C0FF5F70F42C
:1054F000A695E0F7F73950F019F0FF3A38F49F77A6
:105500009F930DD00F9007FC9058089546F00C948F
:10551000422960E070E080E89FE308954FE79F77BD
:105520005F934F933F932F930E94492B2F913F916D
:105530004F915F910E94CF280C94A62A29F416F06F
:105540000C943C290C9486290C9442290E946C29C5
:10555000A8F39638A0F707F80F92E8942BE33AEAFD
:1055600048EB5FE70E94E5280F920F920F924DB72C
:105570005EB70F920E94912BE4EEF0E00E94D82AD1
:105580004F915F91EF91FF91E595EE1FFF1F49F05D
:10559000FE57E0684427EE0F441FFA95E1F7419566
:1055A000550B0E940B2B0F9007FE0C94FF2A0895B9
:1055B000DF93CF931F930F93FF92EF92DF927B01C4
:1055C0008C01689406C0DA2EEF010E94E228FE01E9
:1055D000E894A5912591359145915591A6F3EF0158
:1055E0000E94DD2BFE019701A801DA9469F7DF9094
:1055F000EF90FF900F911F91CF91DF9108959B0144
:10560000AC0160E070E080E89FE30C94322C0C94D5
:105610003C290C94A42C0E946C29D8F39923C9F33B
:10562000940F511DA3F39150504094F059F08823EA
:1056300032F0660F771F881F91505040C1F79E3F90
:1056400051052CF7880F911D9695879597F9089528
:105650005F3FACF0983E9CF0BB27869577956795A9
:10566000B79508F4B1609395C1F7BB0F58F711F4E3
:1056700060FFE8CF6F5F7F4F8F4F9F4FE3CF0C945A
:10568000872916F00C94A42C0C94422968940C944D
:105690003C290E946C29A8F39923C1F3AEF3DF9350
:1056A000CF931F930F93FF92C92FDD2788232AF0F2
:1056B0002197660F771F881FDAF720E030E040E877
:1056C0005FEB9FE3883920F0803E38F021968F779A
:1056D0000E94C62BECE0F1E004C00E94C62BE9E377
:1056E000F1E00E94D82A8B01BE01EC01FB2E6F571E
:1056F00071097595771F880B990B0E94942828E1F2
:1057000032E741E35FE30E94E228AF2D9801AE014A
:10571000FF900F911F91CF91DF910E94DD2B0C9490
:105720005329FA01DC01AA0FBB1F9B01AC01BF5733
:1057300028F4222733274427507820C0B75190F40B
:10574000AB2F0024469537952795011CA395D2F3DE
:10575000002071F0220F331F441FB395DAF30ED0EF
:105760000C94C52B61307105A0E88A07B94630F466
:105770009B01AC016627772788279078309621F027
:10578000208331834283538308955058BB27AA272F
:105790000E94DD2B0C9453290E94452938F00E9469
:1057A0004C2920F039F49F3F19F426F40C94422937
:1057B0000EF4E095E7FB0C943C29E92F0E94642944
:1057C00058F3BA17620773078407950720F079F436
:1057D000A6F50C9486290EF4E0950B2EBA2FA02D79
:1057E0000B01B90190010C01CA01A0011124FF278E
:1057F000591B99F0593F50F4503E68F11A16F04089
:10580000A22F232F342F4427585FF3CF4695379587
:105810002795A795F0405395C9F77EF41F16BA0B4C
:10582000620B730B840BBAF09150A1F0FF0FBB1FFA
:10583000661F771F881FC2F70EC0BA0F621F731F43
:10584000841F48F4879577956795B795F7959E3FA0
:1058500008F0B0CF9395880F08F09927EE0F979531
:10586000879508950E94462C0C9453290E944C2938
:1058700058F00E94452940F029F45F3F29F00C942C
:105880003C2951110C9487290C9442290E946429C7
:1058900068F39923B1F3552391F3951B550BBB275F
:1058A000AA2762177307840738F09F5F5F4F220FA4
:1058B000331F441FAA1FA9F335D00E2E3AF0E0E89B
:1058C00032D091505040E695001CCAF72BD0FE2FE5
:1058D00029D0660F771F881FBB1F26173707480779
:1058E000AB07B0E809F0BB0B802DBF01FF27935831
:1058F0005F4F3AF09E3F510578F00C943C290C9490
:1059000087295F3FE4F3983ED4F3869577956795B2
:10591000B795F7959F5FC9F7880F911D9695879565
:1059200097F90895E1E0660F771F881FBB1F621784
:1059300073078407BA0720F0621B730B840BBA0B42
:10594000EE1F88F7E09508959F3F31F0915020F4C5
:10595000879577956795B795880F911D969587954B
:1059600097F908950F931F93CF93DF93823091059A
:1059700010F482E090E0E0910809F091090930E02C
:1059800020E0B0E0A0E0309799F42115310509F44A
:105990004AC0281B390B24303105D8F58A819B81F8
:1059A0006115710589F1FB0193838283FE0111C0AA
:1059B000408151810281138148175907E0F048174F
:1059C000590799F4109761F012960C931297139659
:1059D0001C933296CF01DF91CF911F910F910895C3
:1059E0000093080910930909F4CF2115310551F0EE
:1059F0004217530738F0A901DB019A01BD01DF010D
:105A0000F801C1CFEF01F9CF9093090980930809FC
:105A1000CDCFFE01E20FF31F819391932250310904
:105A200039832883D7CF2091060930910709232B8A
:105A300041F4209106023091070230930709209328
:105A4000060920910402309105022115310541F427
:105A50002DB73EB74091080250910902241B350B27
:105A6000E0910609F0910709E217F307A0F42E1B55
:105A70003F0B2817390778F0AC014E5F5F4F2417B2
:105A8000350748F04E0F5F1F5093070940930609F2
:105A9000819391939FCFF0E0E0E09CCFCF93DF9391
:105AA0000097E9F0FC01329713821282A091080955
:105AB000B0910909ED0130E020E01097A1F42081B8
:105AC0003181820F931F2091060930910709281711
:105AD000390709F061C0F0930709E0930609DF91E7
